:1000000012C019C018C017C016C015C014C013C044
:1000100012C011C010C00FC00EC00DC00CC00BC06C
:100020000AC009C008C011241FBECFE5D4E0DEBF5E
:10003000CDBF06D02EC0E4CF5F9BFECF8CB108951C
:1000400010BC8DE489B9599888E18AB98FEF84BBD7
:10005000F3DF813011F4AA9AFBCF813111F4AA9811
:10006000F7CF823011F4AB9AF3CF8A3111F4AB9809
:10007000EFCF833011F4AC9AEBCF8B3111F4AC9805
:10008000E7CF843011F4A99AE3CF8C3109F7A9980E
:06009000DFCFF894FFCF62
:00000001FF
