:1000000019C020C01FC01EC01DC01CC01BC01AC00C
:1000100019C018C017C016C015C014C013C012C034
:1000200011C010C00FC048656C6C6F204A617365C9
:10003000656D210011241FBECFE5D4E0DEBFCDBF2A
:100040001AD026C0DDCF5F9BFECF8CB108955D9B9B
:10005000FECF8CB90895CF93DF93EC0104C02196B5
:10006000FC018491F4DFCE01FE0124912223B9F733
:10007000DF91CF91089510BC8DE489B9599888E13A
:100080008AB9E1DF8130E9F786E290E0E4DFF9CF79
:04009000F894FFCF12
:00000001FF
